:1000000009C019C018C017C016C015C014C013C04D
:1000100012C011C011241FBECFE9CDBF10E0A0E671
:10002000B0E0E2EEF3E002C005900D92A236B10717
:10003000D9F7B3D0D4C1E4CF01C00597863091057C
:10004000E0F708951F93DF93CF930F92CDB7DEB7FC
:10005000182F88E9698365D1812F75D16981862F31
:1000600072D169D10F90CF91DF911F9108951F93A5
:10007000DF93CF930F92CDB7DEB7182F88E951D118
:10008000812F61D189E943D17AD1898354D1898182
:100090008F7385FD806C0F90CF91DF911F91089534
:1000A000CF93DF93EC0104C08AEC93E0C5DF219786
:1000B0002097D1F7DF91CF910895FF920F931F936F
:1000C000CF93DF93182F862F880F880F113009F4F4
:1000D000809590E066E070E070D1EC01CA5DDD4F84
:1000E00000E0F12EF09488B38F2188BBCE01A4DF0D
:1000F00088B3812B88BB84E190E0D2DF0F5F0A30A8
:1001000091F7DF91CF911F910F91FF90089581E0BA
:100110006EE1D3DF82E06EE1D0DF0895FF920F93AE
:100120001F9310E08FE3F82E1EC0302F21E000FD5A
:1001300020E091E033FD90E092279295990F990F7E
:10014000907C0695092B8F5F883079F700936000CB
:100150000F7381E0602FB1DF6F2D601B82E0ADDF98
:100160001F5F1A3021F00091600080E0DECF88EC44
:1001700090E096DF1F910F91FF9008951F93182F25
:100180006AE09BDF82E390E08BDF812F68E295DFFE
:1001900082E390E085DF1F910895CF92DF92EF9286
:1001A000FF920F931F93DF93CF9300D0CDB7DEB7AD
:1001B000BA9AC29A84EF91E073DFBA98C29884EF3A
:1001C00091E06EDF9BD087E060E03CDF85E060E09F
:1001D00039DF86E060E036DF88E063E033DF89E026
:1001E00060E030DF80EA60E02DDF87E061E02ADF59
:1001F00087B3836087BB88B3836088BB88DFDD24D7
:10020000EE2400E0FF2410E0CC246EC0DD24CC24DA
:1002100080E02A832CDF982F81E0998328DF998161
:100220002A819B3F24F4183C50F41F5F09C09B3087
:1002300034F09F2D983C18F4F39410E002C010E0C5
:10024000FF248B3024F0083C50F40F5F09C0863F38
:1002500034F4EE2DE83C18F4E39400E002C000E032
:10026000EE24133348F081E061E027DF82E061E0B3
:1002700024DFCC24C39437C0FF2DFB3010F047DFC0
:1002800032C00B3060F027FF06C0D3948D2D823032
:1002900010F044DF02C081E071DF24E621C09E2D12
:1002A0009B3060F0121634F4D394ED2DE23010F050
:1002B00035DF02C082E062DF2CE910C0CC2019F0EB
:1002C0002A8325DF2A8184E190E02A83E9DE2A81DE
:1002D000222309F49BCFCC24121614F081E001C034
:1002E0008FEF280F95CFDD2420E092CF00C000C013
:1002F00000C000C000C000C000000895BB98BC98BA
:10030000C398C4980895BB9AF1DF1DD00895BC9A94
:10031000EDDFBB98EBDFBC98E9DFBB9AE7DF13D0DA
:100320000895082EBB9AE2DF802D0DD0882311F0AE
:1003300002D0F8CF0895BC9ABB9AD8DFBC98D6DF1C
:10034000BB98D4DF08950894881F01C0880F59F026
:10035000BC9A18F40000BB9802C0BB9A00C0C6DF6C
:10036000BC98C4DFF3CFBC9ABB98C0DFBC98B49BE9
:10037000FECF8827B39981E0B9DF992708958827B0
:1003800001C081E071E0BC9ABB98B0DFBC98AEDFE1
:10039000B49BFECF8894B3990894771FA0F7BC9ABA
:1003A000813011F0BB9801C0BB9AA0DFBC98B49B10
:1003B000FECF9CDF872F992708955527002480FFC3
:1003C00002C0060E571F660F771F6115710521F0D9
:1003D00096958795009799F7952F802D0895F89415
:0203E000FFCF4D
:0203E200010018
:00000001FF
